{
  "contractName": "HRProcess",
  "abi": [
    {
      "constant": true,
      "inputs": [],
      "name": "seekerCount",
      "outputs": [
        {
          "name": "",
          "type": "uint256"
        }
      ],
      "payable": false,
      "stateMutability": "view",
      "type": "function",
      "signature": "0x12e7f6a1"
    },
    {
      "constant": true,
      "inputs": [
        {
          "name": "",
          "type": "address"
        }
      ],
      "name": "uploadedJobSeekers",
      "outputs": [
        {
          "name": "",
          "type": "bool"
        }
      ],
      "payable": false,
      "stateMutability": "view",
      "type": "function",
      "signature": "0x8b22fd74"
    },
    {
      "constant": true,
      "inputs": [
        {
          "name": "",
          "type": "uint256"
        }
      ],
      "name": "allJobSeekers",
      "outputs": [
        {
          "name": "id",
          "type": "uint256"
        },
        {
          "name": "firstName",
          "type": "string"
        }
      ],
      "payable": false,
      "stateMutability": "view",
      "type": "function",
      "signature": "0x9b8fc050"
    },
    {
      "inputs": [],
      "payable": false,
      "stateMutability": "nonpayable",
      "type": "constructor",
      "signature": "constructor"
    },
    {
      "anonymous": false,
      "inputs": [
        {
          "indexed": true,
          "name": "_seekerId",
          "type": "uint256"
        }
      ],
      "name": "uploadedResume",
      "type": "event",
      "signature": "0xc512e593534ef0e441dd8bfecd77b5e8e7a6431966fe801bf7f63a56433ec7f6"
    },
    {
      "constant": false,
      "inputs": [
        {
          "name": "_seekerId",
          "type": "uint256"
        }
      ],
      "name": "upload",
      "outputs": [],
      "payable": false,
      "stateMutability": "nonpayable",
      "type": "function",
      "signature": "0x0f7680ac"
    }
  ],
  "bytecode": "0x608060405234801561001057600080fd5b5061005e6040805190810160405280600881526020017f5365656b657220310000000000000000000000000000000000000000000000008152506100b0640100000000026401000000009004565b6100ab6040805190810160405280600881526020017f5365656b657220320000000000000000000000000000000000000000000000008152506100b0640100000000026401000000009004565b6101c0565b600260008154809291906001019190505550604080519081016040528060025481526020018281525060016000600254815260200190815260200160002060008201518160000155602082015181600101908051906020019061011492919061011b565b5090505050565b828054600181600116156101000203166002900490600052602060002090601f016020900481019282601f1061015c57805160ff191683800117855561018a565b8280016001018555821561018a579182015b8281111561018957825182559160200191906001019061016e565b5b509050610197919061019b565b5090565b6101bd91905b808211156101b95760008160009055506001016101a1565b5090565b90565b6103d1806101cf6000396000f300608060405260043610610062576000357c0100000000000000000000000000000000000000000000000000000000900463ffffffff1680630f7680ac1461006757806312e7f6a1146100945780638b22fd74146100bf5780639b8fc0501461011a575b600080fd5b34801561007357600080fd5b50610092600480360381019080803590602001909291905050506101c7565b005b3480156100a057600080fd5b506100a96102c3565b6040518082815260200191505060405180910390f35b3480156100cb57600080fd5b50610100600480360381019080803573ffffffffffffffffffffffffffffffffffffffff1690602001909291905050506102c9565b604051808215151515815260200191505060405180910390f35b34801561012657600080fd5b50610145600480360381019080803590602001909291905050506102e9565b6040518083815260200180602001828103825283818151815260200191508051906020019080838360005b8381101561018b578082015181840152602081019050610170565b50505050905090810190601f1680156101b85780820380516001836020036101000a031916815260200191505b50935050505060405180910390f35b6000803373ffffffffffffffffffffffffffffffffffffffff1673ffffffffffffffffffffffffffffffffffffffff16815260200190815260200160002060009054906101000a900460ff1615151561021f57600080fd5b60008111801561023157506002548111155b151561023c57600080fd5b60016000803373ffffffffffffffffffffffffffffffffffffffff1673ffffffffffffffffffffffffffffffffffffffff16815260200190815260200160002060006101000a81548160ff021916908315150217905550807fc512e593534ef0e441dd8bfecd77b5e8e7a6431966fe801bf7f63a56433ec7f660405160405180910390a250565b60025481565b60006020528060005260406000206000915054906101000a900460ff1681565b6001602052806000526040600020600091509050806000015490806001018054600181600116156101000203166002900480601f01602080910402602001604051908101604052809291908181526020018280546001816001161561010002031660029004801561039b5780601f106103705761010080835404028352916020019161039b565b820191906000526020600020905b81548152906001019060200180831161037e57829003601f168201915b50505050509050825600a165627a7a723058200aeb79185fb362cf634413cf9ebbf9612f1448f0bc54d13c43dfd4c8a2d6a5170029",
  "source": "pragma solidity >=0.4.21 <0.6.0;\r\n\r\ncontract HRProcess{\r\n    struct User {\r\n        uint id;\r\n        string firstName;\r\n        // string emailID;\r\n        // string url;\r\n        // string phoneNumber;\r\n    }\r\n\r\n    mapping(address => bool) public uploadedJobSeekers;\r\n\r\n    mapping(uint => User) public allJobSeekers;\r\n\r\n    uint public seekerCount;\r\n\r\n    event uploadedResume(\r\n        uint indexed _seekerId\r\n    );\r\n\r\n    constructor() public{\r\n        addSeeker(\"Seeker 1\");\r\n        addSeeker(\"Seeker 2\");\r\n    }\r\n\r\n    function addSeeker(string memory _seekerName) private{\r\n        seekerCount++;\r\n        allJobSeekers[seekerCount]=User(seekerCount,_seekerName);\r\n    }\r\n\r\n    function upload(uint _seekerId) public {\r\n        require(!uploadedJobSeekers[msg.sender]);\r\n\r\n        require(_seekerId > 0 && _seekerId <= seekerCount);\r\n\r\n        uploadedJobSeekers[msg.sender] = true;\r\n\r\n        emit uploadedResume(_seekerId);\r\n\r\n    }\r\n}\r\n  ",
  "sourcePath": "D:/Downloads/election-2019_update/election-2019_update/contracts/HRProcess.sol",
  "compiler": {
    "name": "solc",
    "version": "0.4.25+commit.59dbf8f1.Emscripten.clang"
  },
  "schemaVersion": "3.0.2",
  "updatedAt": "2019-09-20T11:19:07.804Z",
  "devdoc": {
    "methods": {}
  },
  "userdoc": {
    "methods": {}
  }
}